{
  "_format": "hh-sol-artifact-1",
  "contractName": "ThreeEarsBunny",
  "sourceName": "contracts/three_ears_bunny/ThreeEarsBunny.sol",
  "abi": [
    {
      "inputs": [],
      "stateMutability": "nonpayable",
      "type": "constructor"
    },
    {
      "inputs": [],
      "name": "ApprovalCallerNotOwnerNorApproved",
      "type": "error"
    },
    {
      "inputs": [],
      "name": "ApprovalQueryForNonexistentToken",
      "type": "error"
    },
    {
      "inputs": [],
      "name": "ApproveToCaller",
      "type": "error"
    },
    {
      "inputs": [],
      "name": "BalanceQueryForZeroAddress",
      "type": "error"
    },
    {
      "inputs": [],
      "name": "MintERC2309QuantityExceedsLimit",
      "type": "error"
    },
    {
      "inputs": [],
      "name": "MintToZeroAddress",
      "type": "error"
    },
    {
      "inputs": [],
      "name": "MintZeroQuantity",
      "type": "error"
    },
    {
      "inputs": [
        {
          "internalType": "address",
          "name": "operator",
          "type": "address"
        }
      ],
      "name": "OperatorNotAllowed",
      "type": "error"
    },
    {
      "inputs": [],
      "name": "OwnerQueryForNonexistentToken",
      "type": "error"
    },
    {
      "inputs": [],
      "name": "OwnershipNotInitializedForExtraData",
      "type": "error"
    },
    {
      "inputs": [],
      "name": "TransferCallerNotOwnerNorApproved",
      "type": "error"
    },
    {
      "inputs": [],
      "name": "TransferFromIncorrectOwner",
      "type": "error"
    },
    {
      "inputs": [],
      "name": "TransferToNonERC721ReceiverImplementer",
      "type": "error"
    },
    {
      "inputs": [],
      "name": "TransferToZeroAddress",
      "type": "error"
    },
    {
      "inputs": [],
      "name": "URIQueryForNonexistentToken",
      "type": "error"
    },
    {
      "anonymous": false,
      "inputs": [
        {
          "indexed": true,
          "internalType": "address",
          "name": "owner",
          "type": "address"
        },
        {
          "indexed": true,
          "internalType": "address",
          "name": "approved",
          "type": "address"
        },
        {
          "indexed": true,
          "internalType": "uint256",
          "name": "tokenId",
          "type": "uint256"
        }
      ],
      "name": "Approval",
      "type": "event"
    },
    {
      "anonymous": false,
      "inputs": [
        {
          "indexed": true,
          "internalType": "address",
          "name": "owner",
          "type": "address"
        },
        {
          "indexed": true,
          "internalType": "address",
          "name": "operator",
          "type": "address"
        },
        {
          "indexed": false,
          "internalType": "bool",
          "name": "approved",
          "type": "bool"
        }
      ],
      "name": "ApprovalForAll",
      "type": "event"
    },
    {
      "anonymous": false,
      "inputs": [
        {
          "indexed": true,
          "internalType": "uint256",
          "name": "fromTokenId",
          "type": "uint256"
        },
        {
          "indexed": false,
          "internalType": "uint256",
          "name": "toTokenId",
          "type": "uint256"
        },
        {
          "indexed": true,
          "internalType": "address",
          "name": "from",
          "type": "address"
        },
        {
          "indexed": true,
          "internalType": "address",
          "name": "to",
          "type": "address"
        }
      ],
      "name": "ConsecutiveTransfer",
      "type": "event"
    },
    {
      "anonymous": false,
      "inputs": [
        {
          "indexed": true,
          "internalType": "address",
          "name": "previousOwner",
          "type": "address"
        },
        {
          "indexed": true,
          "internalType": "address",
          "name": "newOwner",
          "type": "address"
        }
      ],
      "name": "OwnershipTransferred",
      "type": "event"
    },
    {
      "anonymous": false,
      "inputs": [
        {
          "indexed": true,
          "internalType": "bytes32",
          "name": "role",
          "type": "bytes32"
        },
        {
          "indexed": true,
          "internalType": "bytes32",
          "name": "previousAdminRole",
          "type": "bytes32"
        },
        {
          "indexed": true,
          "internalType": "bytes32",
          "name": "newAdminRole",
          "type": "bytes32"
        }
      ],
      "name": "RoleAdminChanged",
      "type": "event"
    },
    {
      "anonymous": false,
      "inputs": [
        {
          "indexed": true,
          "internalType": "bytes32",
          "name": "role",
          "type": "bytes32"
        },
        {
          "indexed": true,
          "internalType": "address",
          "name": "account",
          "type": "address"
        },
        {
          "indexed": true,
          "internalType": "address",
          "name": "sender",
          "type": "address"
        }
      ],
      "name": "RoleGranted",
      "type": "event"
    },
    {
      "anonymous": false,
      "inputs": [
        {
          "indexed": true,
          "internalType": "bytes32",
          "name": "role",
          "type": "bytes32"
        },
        {
          "indexed": true,
          "internalType": "address",
          "name": "account",
          "type": "address"
        },
        {
          "indexed": true,
          "internalType": "address",
          "name": "sender",
          "type": "address"
        }
      ],
      "name": "RoleRevoked",
      "type": "event"
    },
    {
      "anonymous": false,
      "inputs": [
        {
          "indexed": true,
          "internalType": "address",
          "name": "from",
          "type": "address"
        },
        {
          "indexed": true,
          "internalType": "address",
          "name": "to",
          "type": "address"
        },
        {
          "indexed": true,
          "internalType": "uint256",
          "name": "tokenId",
          "type": "uint256"
        }
      ],
      "name": "Transfer",
      "type": "event"
    },
    {
      "inputs": [],
      "name": "DEFAULT_ADMIN_ROLE",
      "outputs": [
        {
          "internalType": "bytes32",
          "name": "",
          "type": "bytes32"
        }
      ],
      "stateMutability": "view",
      "type": "function"
    },
    {
      "inputs": [],
      "name": "MAINTAIN_ROLE",
      "outputs": [
        {
          "internalType": "bytes32",
          "name": "",
          "type": "bytes32"
        }
      ],
      "stateMutability": "view",
      "type": "function"
    },
    {
      "inputs": [],
      "name": "MAX_GUARANTEE_COUNT",
      "outputs": [
        {
          "internalType": "uint256",
          "name": "",
          "type": "uint256"
        }
      ],
      "stateMutability": "view",
      "type": "function"
    },
    {
      "inputs": [],
      "name": "MAX_NONE_GUARANTEE_COUNT",
      "outputs": [
        {
          "internalType": "uint256",
          "name": "",
          "type": "uint256"
        }
      ],
      "stateMutability": "view",
      "type": "function"
    },
    {
      "inputs": [],
      "name": "MAX_PUBLIC_COUNT",
      "outputs": [
        {
          "internalType": "uint256",
          "name": "",
          "type": "uint256"
        }
      ],
      "stateMutability": "view",
      "type": "function"
    },
    {
      "inputs": [],
      "name": "MAX_TOTAL_SUPPLY",
      "outputs": [
        {
          "internalType": "uint256",
          "name": "",
          "type": "uint256"
        }
      ],
      "stateMutability": "view",
      "type": "function"
    },
    {
      "inputs": [],
      "name": "OPERATOR_FILTER_REGISTRY",
      "outputs": [
        {
          "internalType": "contract IOperatorFilterRegistry",
          "name": "",
          "type": "address"
        }
      ],
      "stateMutability": "view",
      "type": "function"
    },
    {
      "inputs": [],
      "name": "PROJECT_MANAGER",
      "outputs": [
        {
          "internalType": "address",
          "name": "",
          "type": "address"
        }
      ],
      "stateMutability": "view",
      "type": "function"
    },
    {
      "inputs": [
        {
          "internalType": "address",
          "name": "operator",
          "type": "address"
        },
        {
          "internalType": "uint256",
          "name": "tokenId",
          "type": "uint256"
        }
      ],
      "name": "approve",
      "outputs": [],
      "stateMutability": "nonpayable",
      "type": "function"
    },
    {
      "inputs": [
        {
          "internalType": "address",
          "name": "owner",
          "type": "address"
        }
      ],
      "name": "balanceOf",
      "outputs": [
        {
          "internalType": "uint256",
          "name": "",
          "type": "uint256"
        }
      ],
      "stateMutability": "view",
      "type": "function"
    },
    {
      "inputs": [],
      "name": "baseImageUri",
      "outputs": [
        {
          "internalType": "string",
          "name": "",
          "type": "string"
        }
      ],
      "stateMutability": "view",
      "type": "function"
    },
    {
      "inputs": [
        {
          "internalType": "uint256",
          "name": "tokenId",
          "type": "uint256"
        }
      ],
      "name": "burn",
      "outputs": [],
      "stateMutability": "nonpayable",
      "type": "function"
    },
    {
      "inputs": [],
      "name": "deleteDefaultRoyalty",
      "outputs": [],
      "stateMutability": "nonpayable",
      "type": "function"
    },
    {
      "inputs": [
        {
          "internalType": "uint256",
          "name": "tokenId",
          "type": "uint256"
        }
      ],
      "name": "getApproved",
      "outputs": [
        {
          "internalType": "address",
          "name": "",
          "type": "address"
        }
      ],
      "stateMutability": "view",
      "type": "function"
    },
    {
      "inputs": [],
      "name": "getConfig",
      "outputs": [
        {
          "internalType": "uint256",
          "name": "",
          "type": "uint256"
        },
        {
          "internalType": "uint256",
          "name": "",
          "type": "uint256"
        },
        {
          "internalType": "uint256",
          "name": "",
          "type": "uint256"
        },
        {
          "internalType": "uint256",
          "name": "",
          "type": "uint256"
        },
        {
          "internalType": "uint256",
          "name": "",
          "type": "uint256"
        },
        {
          "internalType": "uint256",
          "name": "",
          "type": "uint256"
        },
        {
          "internalType": "uint256",
          "name": "",
          "type": "uint256"
        },
        {
          "internalType": "uint256",
          "name": "",
          "type": "uint256"
        }
      ],
      "stateMutability": "view",
      "type": "function"
    },
    {
      "inputs": [],
      "name": "getCurrentPhase",
      "outputs": [
        {
          "internalType": "enum ThreeEarsBunny.Phase",
          "name": "",
          "type": "uint8"
        }
      ],
      "stateMutability": "view",
      "type": "function"
    },
    {
      "inputs": [
        {
          "internalType": "bytes32",
          "name": "role",
          "type": "bytes32"
        }
      ],
      "name": "getRoleAdmin",
      "outputs": [
        {
          "internalType": "bytes32",
          "name": "",
          "type": "bytes32"
        }
      ],
      "stateMutability": "view",
      "type": "function"
    },
    {
      "inputs": [
        {
          "internalType": "uint256[]",
          "name": "tokenIds",
          "type": "uint256[]"
        }
      ],
      "name": "getTokenLockStatus",
      "outputs": [
        {
          "internalType": "bool[]",
          "name": "",
          "type": "bool[]"
        }
      ],
      "stateMutability": "view",
      "type": "function"
    },
    {
      "inputs": [
        {
          "internalType": "bytes32",
          "name": "role",
          "type": "bytes32"
        },
        {
          "internalType": "address",
          "name": "account",
          "type": "address"
        }
      ],
      "name": "grantRole",
      "outputs": [],
      "stateMutability": "nonpayable",
      "type": "function"
    },
    {
      "inputs": [],
      "name": "guaranteeWhiteListEndTime",
      "outputs": [
        {
          "internalType": "uint256",
          "name": "",
          "type": "uint256"
        }
      ],
      "stateMutability": "view",
      "type": "function"
    },
    {
      "inputs": [],
      "name": "guaranteeWhiteListPrice",
      "outputs": [
        {
          "internalType": "uint256",
          "name": "",
          "type": "uint256"
        }
      ],
      "stateMutability": "view",
      "type": "function"
    },
    {
      "inputs": [],
      "name": "guaranteeWhiteListStartTime",
      "outputs": [
        {
          "internalType": "uint256",
          "name": "",
          "type": "uint256"
        }
      ],
      "stateMutability": "view",
      "type": "function"
    },
    {
      "inputs": [],
      "name": "hasMinted",
      "outputs": [
        {
          "internalType": "bool",
          "name": "",
          "type": "bool"
        },
        {
          "internalType": "bool",
          "name": "",
          "type": "bool"
        }
      ],
      "stateMutability": "view",
      "type": "function"
    },
    {
      "inputs": [
        {
          "internalType": "bytes32",
          "name": "role",
          "type": "bytes32"
        },
        {
          "internalType": "address",
          "name": "account",
          "type": "address"
        }
      ],
      "name": "hasRole",
      "outputs": [
        {
          "internalType": "bool",
          "name": "",
          "type": "bool"
        }
      ],
      "stateMutability": "view",
      "type": "function"
    },
    {
      "inputs": [
        {
          "internalType": "address",
          "name": "owner",
          "type": "address"
        },
        {
          "internalType": "address",
          "name": "operator",
          "type": "address"
        }
      ],
      "name": "isApprovedForAll",
      "outputs": [
        {
          "internalType": "bool",
          "name": "",
          "type": "bool"
        }
      ],
      "stateMutability": "view",
      "type": "function"
    },
    {
      "inputs": [
        {
          "internalType": "uint256",
          "name": "quantity",
          "type": "uint256"
        }
      ],
      "name": "mintForAdmin",
      "outputs": [],
      "stateMutability": "nonpayable",
      "type": "function"
    },
    {
      "inputs": [
        {
          "internalType": "uint256",
          "name": "quantity",
          "type": "uint256"
        },
        {
          "internalType": "uint256",
          "name": "maxCount",
          "type": "uint256"
        },
        {
          "internalType": "uint256",
          "name": "nonce",
          "type": "uint256"
        },
        {
          "internalType": "bytes",
          "name": "sign",
          "type": "bytes"
        }
      ],
      "name": "mintForGuaranteeWhiteList",
      "outputs": [],
      "stateMutability": "payable",
      "type": "function"
    },
    {
      "inputs": [
        {
          "internalType": "uint256",
          "name": "quantity",
          "type": "uint256"
        },
        {
          "internalType": "uint256",
          "name": "maxCount",
          "type": "uint256"
        },
        {
          "internalType": "uint256",
          "name": "nonce",
          "type": "uint256"
        },
        {
          "internalType": "bytes",
          "name": "sign",
          "type": "bytes"
        }
      ],
      "name": "mintForNonGuaranteeWhiteList",
      "outputs": [],
      "stateMutability": "payable",
      "type": "function"
    },
    {
      "inputs": [
        {
          "internalType": "uint256",
          "name": "quantity",
          "type": "uint256"
        }
      ],
      "name": "mintForPublic",
      "outputs": [],
      "stateMutability": "payable",
      "type": "function"
    },
    {
      "inputs": [],
      "name": "name",
      "outputs": [
        {
          "internalType": "string",
          "name": "",
          "type": "string"
        }
      ],
      "stateMutability": "view",
      "type": "function"
    },
    {
      "inputs": [],
      "name": "nonGuaranteeWhiteListEndTime",
      "outputs": [
        {
          "internalType": "uint256",
          "name": "",
          "type": "uint256"
        }
      ],
      "stateMutability": "view",
      "type": "function"
    },
    {
      "inputs": [],
      "name": "nonGuaranteeWhiteListPrice",
      "outputs": [
        {
          "internalType": "uint256",
          "name": "",
          "type": "uint256"
        }
      ],
      "stateMutability": "view",
      "type": "function"
    },
    {
      "inputs": [],
      "name": "nonGuaranteeWhiteListStartTime",
      "outputs": [
        {
          "internalType": "uint256",
          "name": "",
          "type": "uint256"
        }
      ],
      "stateMutability": "view",
      "type": "function"
    },
    {
      "inputs": [],
      "name": "owner",
      "outputs": [
        {
          "internalType": "address",
          "name": "",
          "type": "address"
        }
      ],
      "stateMutability": "view",
      "type": "function"
    },
    {
      "inputs": [
        {
          "internalType": "uint256",
          "name": "tokenId",
          "type": "uint256"
        }
      ],
      "name": "ownerOf",
      "outputs": [
        {
          "internalType": "address",
          "name": "",
          "type": "address"
        }
      ],
      "stateMutability": "view",
      "type": "function"
    },
    {
      "inputs": [],
      "name": "publicPrice",
      "outputs": [
        {
          "internalType": "uint256",
          "name": "",
          "type": "uint256"
        }
      ],
      "stateMutability": "view",
      "type": "function"
    },
    {
      "inputs": [],
      "name": "publicTime",
      "outputs": [
        {
          "internalType": "uint256",
          "name": "",
          "type": "uint256"
        }
      ],
      "stateMutability": "view",
      "type": "function"
    },
    {
      "inputs": [],
      "name": "renounceOwnership",
      "outputs": [],
      "stateMutability": "nonpayable",
      "type": "function"
    },
    {
      "inputs": [
        {
          "internalType": "bytes32",
          "name": "role",
          "type": "bytes32"
        },
        {
          "internalType": "address",
          "name": "account",
          "type": "address"
        }
      ],
      "name": "renounceRole",
      "outputs": [],
      "stateMutability": "nonpayable",
      "type": "function"
    },
    {
      "inputs": [
        {
          "internalType": "uint256",
          "name": "tokenId",
          "type": "uint256"
        }
      ],
      "name": "resetTokenRoyalty",
      "outputs": [],
      "stateMutability": "nonpayable",
      "type": "function"
    },
    {
      "inputs": [
        {
          "internalType": "bytes32",
          "name": "role",
          "type": "bytes32"
        },
        {
          "internalType": "address",
          "name": "account",
          "type": "address"
        }
      ],
      "name": "revokeRole",
      "outputs": [],
      "stateMutability": "nonpayable",
      "type": "function"
    },
    {
      "inputs": [
        {
          "internalType": "uint256",
          "name": "_tokenId",
          "type": "uint256"
        },
        {
          "internalType": "uint256",
          "name": "_salePrice",
          "type": "uint256"
        }
      ],
      "name": "royaltyInfo",
      "outputs": [
        {
          "internalType": "address",
          "name": "",
          "type": "address"
        },
        {
          "internalType": "uint256",
          "name": "",
          "type": "uint256"
        }
      ],
      "stateMutability": "view",
      "type": "function"
    },
    {
      "inputs": [
        {
          "internalType": "address",
          "name": "from",
          "type": "address"
        },
        {
          "internalType": "address",
          "name": "to",
          "type": "address"
        },
        {
          "internalType": "uint256",
          "name": "tokenId",
          "type": "uint256"
        }
      ],
      "name": "safeTransferFrom",
      "outputs": [],
      "stateMutability": "nonpayable",
      "type": "function"
    },
    {
      "inputs": [
        {
          "internalType": "address",
          "name": "from",
          "type": "address"
        },
        {
          "internalType": "address",
          "name": "to",
          "type": "address"
        },
        {
          "internalType": "uint256",
          "name": "tokenId",
          "type": "uint256"
        },
        {
          "internalType": "bytes",
          "name": "data",
          "type": "bytes"
        }
      ],
      "name": "safeTransferFrom",
      "outputs": [],
      "stateMutability": "nonpayable",
      "type": "function"
    },
    {
      "inputs": [
        {
          "internalType": "address",
          "name": "operator",
          "type": "address"
        },
        {
          "internalType": "bool",
          "name": "approved",
          "type": "bool"
        }
      ],
      "name": "setApprovalForAll",
      "outputs": [],
      "stateMutability": "nonpayable",
      "type": "function"
    },
    {
      "inputs": [
        {
          "internalType": "string",
          "name": "newuri",
          "type": "string"
        }
      ],
      "name": "setBaseImageUri",
      "outputs": [],
      "stateMutability": "nonpayable",
      "type": "function"
    },
    {
      "inputs": [
        {
          "internalType": "uint256",
          "name": "guaranteeWhiteListPrice_",
          "type": "uint256"
        },
        {
          "internalType": "uint256",
          "name": "nonGuaranteeWhiteListPrice_",
          "type": "uint256"
        },
        {
          "internalType": "uint256",
          "name": "publicPrice_",
          "type": "uint256"
        },
        {
          "internalType": "uint256",
          "name": "guaranteeWhiteListStartTime_",
          "type": "uint256"
        },
        {
          "internalType": "uint256",
          "name": "guaranteeWhiteListEndTime_",
          "type": "uint256"
        },
        {
          "internalType": "uint256",
          "name": "nonGuaranteeWhiteListStartTime_",
          "type": "uint256"
        },
        {
          "internalType": "uint256",
          "name": "nonGuaranteeWhiteListEndTime_",
          "type": "uint256"
        },
        {
          "internalType": "uint256",
          "name": "publicTime_",
          "type": "uint256"
        }
      ],
      "name": "setConfig",
      "outputs": [],
      "stateMutability": "nonpayable",
      "type": "function"
    },
    {
      "inputs": [
        {
          "internalType": "address",
          "name": "receiver",
          "type": "address"
        },
        {
          "internalType": "uint96",
          "name": "feeNumerator",
          "type": "uint96"
        }
      ],
      "name": "setDefaultRoyalty",
      "outputs": [],
      "stateMutability": "nonpayable",
      "type": "function"
    },
    {
      "inputs": [
        {
          "internalType": "uint256[]",
          "name": "tokenIds",
          "type": "uint256[]"
        },
        {
          "internalType": "bool",
          "name": "isLock",
          "type": "bool"
        }
      ],
      "name": "setTokenLockStatus",
      "outputs": [],
      "stateMutability": "nonpayable",
      "type": "function"
    },
    {
      "inputs": [
        {
          "internalType": "uint256",
          "name": "tokenId",
          "type": "uint256"
        },
        {
          "internalType": "address",
          "name": "receiver",
          "type": "address"
        },
        {
          "internalType": "uint96",
          "name": "feeNumerator",
          "type": "uint96"
        }
      ],
      "name": "setTokenRoyalty",
      "outputs": [],
      "stateMutability": "nonpayable",
      "type": "function"
    },
    {
      "inputs": [
        {
          "internalType": "bytes4",
          "name": "interfaceId",
          "type": "bytes4"
        }
      ],
      "name": "supportsInterface",
      "outputs": [
        {
          "internalType": "bool",
          "name": "",
          "type": "bool"
        }
      ],
      "stateMutability": "view",
      "type": "function"
    },
    {
      "inputs": [],
      "name": "symbol",
      "outputs": [
        {
          "internalType": "string",
          "name": "",
          "type": "string"
        }
      ],
      "stateMutability": "view",
      "type": "function"
    },
    {
      "inputs": [
        {
          "internalType": "uint256",
          "name": "tokenId",
          "type": "uint256"
        }
      ],
      "name": "tokenURI",
      "outputs": [
        {
          "internalType": "string",
          "name": "",
          "type": "string"
        }
      ],
      "stateMutability": "view",
      "type": "function"
    },
    {
      "inputs": [],
      "name": "totalMintedCount",
      "outputs": [
        {
          "internalType": "uint256",
          "name": "",
          "type": "uint256"
        }
      ],
      "stateMutability": "view",
      "type": "function"
    },
    {
      "inputs": [],
      "name": "totalSupply",
      "outputs": [
        {
          "internalType": "uint256",
          "name": "",
          "type": "uint256"
        }
      ],
      "stateMutability": "view",
      "type": "function"
    },
    {
      "inputs": [
        {
          "internalType": "address",
          "name": "from",
          "type": "address"
        },
        {
          "internalType": "address",
          "name": "to",
          "type": "address"
        },
        {
          "internalType": "uint256",
          "name": "tokenId",
          "type": "uint256"
        }
      ],
      "name": "transferFrom",
      "outputs": [],
      "stateMutability": "nonpayable",
      "type": "function"
    },
    {
      "inputs": [
        {
          "internalType": "address",
          "name": "newOwner",
          "type": "address"
        }
      ],
      "name": "transferOwnership",
      "outputs": [],
      "stateMutability": "nonpayable",
      "type": "function"
    },
    {
      "inputs": [
        {
          "internalType": "address",
          "name": "contractAddress",
          "type": "address"
        },
        {
          "internalType": "bool",
          "name": "status",
          "type": "bool"
        }
      ],
      "name": "updateContractApprovalStatus",
      "outputs": [],
      "stateMutability": "nonpayable",
      "type": "function"
    },
    {
      "inputs": [],
      "name": "withdraw",
      "outputs": [],
      "stateMutability": "nonpayable",
      "type": "function"
    }
  ],
  "bytecode": "0x67010a741a46278000600e81905566f8b0a10e470000600f5560105560c0604052601a60808190527f68747470733a2f2f6d797374657279626f782e3365622e696f2f00000000000060a09081526200005c9160119190620003c2565b503480156200006a57600080fd5b50733cc6cdda760b79bafa08df41ecfa224f810dceb660016040518060400160405280600e81526020016d54687265654561727342756e6e7960901b815250604051806040016040528060038152602001622a22a160e91b81525081818160039080519060200190620000df929190620003c2565b508051620000f5906004906020840190620003c2565b5050600180555050506daaeb6d7670e522a718067333cd4e3b15620002435780156200019157604051633e9f1edf60e11b81523060048201526001600160a01b03831660248201526daaeb6d7670e522a718067333cd4e90637d3e3dbe906044015b600060405180830381600087803b1580156200017257600080fd5b505af115801562000187573d6000803e3d6000fd5b5050505062000243565b6001600160a01b03821615620001e25760405163a0af290360e01b81523060048201526001600160a01b03831660248201526daaeb6d7670e522a718067333cd4e9063a0af29039060440162000157565b604051632210724360e11b81523060048201526daaeb6d7670e522a718067333cd4e90634420e48690602401600060405180830381600087803b1580156200022957600080fd5b505af11580156200023e573d6000803e3d6000fd5b505050505b5062000251905033620002cf565b6200025e60003362000321565b6200027f60007336ee5acbeed8627437d94856afa069c281f1979f62000321565b6200029a60008051602062003abf8339815191523362000321565b620002c960008051602062003abf8339815191527336ee5acbeed8627437d94856afa069c281f1979f62000321565b620004a4565b600d80546001600160a01b038381166001600160a01b0319831681179093556040519116919082907f8be0079c531659141344cd1fd0a4f28419497f9722a3daafe3b4186f6b6457e090600090a35050565b6000828152602081815260408083206001600160a01b038516845290915290205460ff16620003be576000828152602081815260408083206001600160a01b03851684529091529020805460ff191660011790556200037d3390565b6001600160a01b0316816001600160a01b0316837f2f8788117e7eff1d82e926ec794901d17c78024a50270940304540a733656f0d60405160405180910390a45b5050565b828054620003d09062000468565b90600052602060002090601f016020900481019282620003f457600085556200043f565b82601f106200040f57805160ff19168380011785556200043f565b828001600101855582156200043f579182015b828111156200043f57825182559160200191906001019062000422565b506200044d92915062000451565b5090565b5b808211156200044d576000815560010162000452565b600181811c908216806200047d57607f821691505b6020821081036200049e57634e487b7160e01b600052602260045260246000fd5b50919050565b61360b80620004b46000396000f3fe60806040526004361061038c5760003560e01c806365ff67d8116101dc578063a945bf8011610102578063cb504f98116100a0578063f2fde38b1161006f578063f2fde38b14610a8b578063f31b5b3314610aab578063f48e281d14610abe578063f890fcec14610aeb57600080fd5b8063cb504f98146109ec578063d547741f14610a02578063d6d07c9b14610a22578063e985e9c514610a4257600080fd5b8063b88d4fde116100dc578063b88d4fde14610939578063c3f909d414610959578063c5578209146109b9578063c87b56dd146109cc57600080fd5b8063a945bf80146108f9578063aa1b103f1461090f578063aea1943e1461092457600080fd5b80638763964c1161017a57806395d89b411161014957806395d89b411461088d578063a217fddf146108a2578063a22cb465146108b7578063a3a40ea5146108d757600080fd5b80638763964c1461080f5780638a616bc01461082f5780638da5cb5b1461084f57806391d148541461086d57600080fd5b8063715018a6116101b6578063715018a6146107b95780637642224c146107ce57806377527b87146107e45780638226a672146107f957600080fd5b806365ff67d81461075157806370a082311461077157806370c095e21461079157600080fd5b806326ba27e3116102c15780633f330ff81161025f5780634e0416351161022e5780634e0416351461065a5780635944c753146106f15780635ee91228146107115780636352211e1461073157600080fd5b80633f330ff81461066f57806341f434341461068f57806342842e0e146106b157806342966c68146106d157600080fd5b806333039d3d1161029b57806333039d3d1461060f57806336568abe146106255780633ccfd60b146106455780633f2654131461065a57600080fd5b806326ba27e31461059b5780632a55205a146105b05780632f2ff15d146105ef57600080fd5b80630f7cf9e31161032e5780631bdc608e116103085780631bdc608e146104ee57806322ef69751461050457806323b872dd1461054b578063248a9ca31461056b57600080fd5b80630f7cf9e3146104a55780631065d0cb146104bb57806318160ddd146104d157600080fd5b806306fdde031161036a57806306fdde0314610418578063081812fc1461043a578063095ea7b3146104725780630c40a1b71461049257600080fd5b806301ffc9a71461039157806304634d8d146103c6578063066b57ef146103e8575b600080fd5b34801561039d57600080fd5b506103b16103ac366004612c48565b610b01565b60405190151581526020015b60405180910390f35b3480156103d257600080fd5b506103e66103e1366004612c98565b610b12565b005b3480156103f457600080fd5b5061040a60008051602061359683398151915281565b6040519081526020016103bd565b34801561042457600080fd5b5061042d610b39565b6040516103bd9190612d23565b34801561044657600080fd5b5061045a610455366004612d36565b610bcb565b6040516001600160a01b0390911681526020016103bd565b34801561047e57600080fd5b506103e661048d366004612d4f565b610c0f565b6103e66104a0366004612e25565b610c23565b3480156104b157600080fd5b5061040a60165481565b3480156104c757600080fd5b5061040a60155481565b3480156104dd57600080fd5b50600254600154036000190161040a565b3480156104fa57600080fd5b5061040a60195481565b34801561051057600080fd5b503360009081526012602090815260408083205460139092529091205460ff91821691166040805192151583529015156020830152016103bd565b34801561055757600080fd5b506103e6610566366004612e7f565b610c92565b34801561057757600080fd5b5061040a610586366004612d36565b60009081526020819052604090206001015490565b3480156105a757600080fd5b5061040a610cb7565b3480156105bc57600080fd5b506105d06105cb366004612ebb565b610ccb565b604080516001600160a01b0390931683526020830191909152016103bd565b3480156105fb57600080fd5b506103e661060a366004612edd565b610d79565b34801561061b57600080fd5b5061040a61271081565b34801561063157600080fd5b506103e6610640366004612edd565b610d9e565b34801561065157600080fd5b506103e6610e1c565b34801561066657600080fd5b5061040a600281565b34801561067b57600080fd5b506103e661068a366004612f00565b610ec5565b34801561069b57600080fd5b5061045a6daaeb6d7670e522a718067333cd4e81565b3480156106bd57600080fd5b506103e66106cc366004612e7f565b610f04565b3480156106dd57600080fd5b506103e66106ec366004612d36565b610f29565b3480156106fd57600080fd5b506103e661070c366004612f55565b610f37565b34801561071d57600080fd5b506103e661072c366004612f91565b610f5a565b34801561073d57600080fd5b5061045a61074c366004612d36565b610f85565b34801561075d57600080fd5b506103e661076c36600461302d565b610f90565b34801561077d57600080fd5b5061040a61078c366004613084565b611147565b34801561079d57600080fd5b5061045a7336ee5acbeed8627437d94856afa069c281f1979f81565b3480156107c557600080fd5b506103e6611196565b3480156107da57600080fd5b5061040a60105481565b3480156107f057600080fd5b5061040a600481565b34801561080557600080fd5b5061040a60185481565b34801561081b57600080fd5b506103e661082a36600461309f565b6111aa565b34801561083b57600080fd5b506103e661084a366004612d36565b6111eb565b34801561085b57600080fd5b50600d546001600160a01b031661045a565b34801561087957600080fd5b506103b1610888366004612edd565b611215565b34801561089957600080fd5b5061042d61123e565b3480156108ae57600080fd5b5061040a600081565b3480156108c357600080fd5b506103e66108d236600461309f565b61124d565b3480156108e357600080fd5b506108ec611261565b6040516103bd91906130ec565b34801561090557600080fd5b5061040a600e5481565b34801561091b57600080fd5b506103e66112c1565b34801561093057600080fd5b5061042d6112e3565b34801561094557600080fd5b506103e6610954366004613114565b611371565b34801561096557600080fd5b50600f54601054600e54601554601654601754601854601954604080519889526020890197909752958701949094526060860192909252608085015260a084015260c083015260e0820152610100016103bd565b6103e66109c7366004612e25565b61139e565b3480156109d857600080fd5b5061042d6109e7366004612d36565b611402565b3480156109f857600080fd5b5061040a600f5481565b348015610a0e57600080fd5b506103e6610a1d366004612edd565b611486565b348015610a2e57600080fd5b506103e6610a3d366004612d36565b6114ab565b348015610a4e57600080fd5b506103b1610a5d366004613164565b6001600160a01b03918216600090815260086020908152604080832093909416825291909152205460ff1690565b348015610a9757600080fd5b506103e6610aa6366004613084565b611535565b6103e6610ab9366004612d36565b6115ab565b348015610aca57600080fd5b50610ade610ad936600461318e565b61176c565b6040516103bd91906131d0565b348015610af757600080fd5b5061040a60175481565b6000610b0c82611835565b92915050565b600080516020613596833981519152610b2a8161185a565b610b348383611864565b505050565b606060038054610b4890613216565b80601f0160208091040260200160405190810160405280929190818152602001828054610b7490613216565b8015610bc15780601f10610b9657610100808354040283529160200191610bc1565b820191906000526020600020905b815481529060010190602001808311610ba457829003601f168201915b5050505050905090565b6000610bd68261191e565b610bf3576040516333d1c03960e21b815260040160405180910390fd5b506000908152600760205260409020546001600160a01b031690565b81610c1981611953565b610b348383611a0c565b6004831115610c795760405162461bcd60e51b815260206004820152601b60248201527f5445423a204d617820636f756e7420657863656564206c696d6974000000000060448201526064015b60405180910390fd5b610c8c84600f5485858560126001611aac565b50505050565b826001600160a01b0381163314610cac57610cac33611953565b610c8c848484611d19565b6000610cc66001546000190190565b905090565b6000828152600c602090815260408083208151808301909252546001600160a01b038116808352600160a01b9091046001600160601b0316928201929092528291610d40575060408051808201909152600b546001600160a01b0381168252600160a01b90046001600160601b031660208201525b602081015160009061271090610d5f906001600160601b031687613266565b610d699190613285565b91519350909150505b9250929050565b600082815260208190526040902060010154610d948161185a565b610b348383611eb6565b6001600160a01b0381163314610e0e5760405162461bcd60e51b815260206004820152602f60248201527f416363657373436f6e74726f6c3a2063616e206f6e6c792072656e6f756e636560448201526e103937b632b9903337b91039b2b63360891b6064820152608401610c70565b610e188282611f3a565b5050565b600080516020613596833981519152610e348161185a565b6040514790600090339083908381818185875af1925050503d8060008114610e78576040519150601f19603f3d011682016040523d82523d6000602084013e610e7d565b606091505b5050905080610b345760405162461bcd60e51b81526020600482015260146024820152731511508e8815da5d1a191c985dc819985a5b195960621b6044820152606401610c70565b600080516020613596833981519152610edd8161185a565b50600f97909755601095909555600e93909355601591909155601655601755601855601955565b826001600160a01b0381163314610f1e57610f1e33611953565b610c8c848484611f9f565b610f34816001611fba565b50565b600080516020613596833981519152610f4f8161185a565b610c8c848484612101565b600080516020613596833981519152610f728161185a565b8151610b34906011906020850190612b99565b6000610b0c826121cc565b60005b82811015610c8c576000848483818110610faf57610faf6132a7565b9050602002013590506000610fc382610f85565b9050326001600160a01b038216146110315760405162461bcd60e51b815260206004820152602b60248201527f455243373231414c6f636b61626c653a207468652063616c6c6572206973206e60448201526a1bdd08185c1c1c9bdd995960aa1b6064820152608401610c70565b336000908152600a602052604090205460ff166110a65760405162461bcd60e51b815260206004820152602d60248201527f455243373231414c6f636b61626c653a2074686520636f6e747261637420697360448201526c081b9bdd08185c1c1c9bdd9959609a1b6064820152608401610c70565b60008281526009602052604090205484151560ff90911615150361111a5760405162461bcd60e51b815260206004820152602560248201527f455243373231414c6f636b61626c653a206c6f636b207374617475732069732060448201526477726f6e6760d81b6064820152608401610c70565b506000908152600960205260409020805460ff19168315151790558061113f816132bd565b915050610f93565b60006001600160a01b038216611170576040516323d3ad8160e21b815260040160405180910390fd5b506001600160a01b031660009081526006602052604090205467ffffffffffffffff1690565b61119e61223b565b6111a86000612295565b565b6000805160206135968339815191526111c28161185a565b6001600160a01b0383166000908152600a60205260409020805460ff1916831515179055505050565b6000805160206135968339815191526112038161185a565b506000908152600c6020526040812055565b6000918252602082815260408084206001600160a01b0393909316845291905290205460ff1690565b606060048054610b4890613216565b8161125781611953565b610b3483836122e7565b6000603c60155461127291906132d6565b42101561127f5750600090565b60165442101561128f5750600190565b603c60175461129e91906132d6565b4210156112ab5750600090565b6018544210156112bb5750600290565b50600390565b6000805160206135968339815191526112d98161185a565b610f346000600b55565b601180546112f090613216565b80601f016020809104026020016040519081016040528092919081815260200182805461131c90613216565b80156113695780601f1061133e57610100808354040283529160200191611369565b820191906000526020600020905b81548152906001019060200180831161134c57829003601f168201915b505050505081565b836001600160a01b038116331461138b5761138b33611953565b6113978585858561237c565b5050505050565b60028311156113ef5760405162461bcd60e51b815260206004820152601b60248201527f5445423a204d617820636f756e7420657863656564206c696d697400000000006044820152606401610c70565b610c8c8460105485858560136002611aac565b606061140d8261191e565b61142a57604051630a14c4b560e41b815260040160405180910390fd5b60006114346123c0565b90508051600003611454576040518060200160405280600081525061147f565b8061145e846123cf565b60405160200161146f9291906132ed565b6040516020818303038152906040525b9392505050565b6000828152602081905260409020600101546114a18161185a565b610b348383611f3a565b6000805160206135968339815191526114c38161185a565b333b156114e25760405162461bcd60e51b8152600401610c709061331c565b612710826114f36001546000190190565b6114fd9190613353565b111561151b5760405162461bcd60e51b8152600401610c709061336b565b610e18338360405180602001604052806000815250612407565b61153d61223b565b6001600160a01b0381166115a25760405162461bcd60e51b815260206004820152602660248201527f4f776e61626c653a206e6577206f776e657220697320746865207a65726f206160448201526564647265737360d01b6064820152608401610c70565b610f3481612295565b3332146115ca5760405162461bcd60e51b8152600401610c709061331c565b60036115d4611261565b60048111156115e5576115e56130d6565b146116285760405162461bcd60e51b81526020600482015260136024820152720a88a847440a0d0c2e6ca40dad2e6dac2e8c6d606b1b6044820152606401610c70565b60028111156116795760405162461bcd60e51b815260206004820152601a60248201527f5445423a205175616e7469747920657863656564206c696d69740000000000006044820152606401610c70565b3481600e546116889190613266565b11156116a65760405162461bcd60e51b8152600401610c70906133b2565b3360009081526014602052604090205460ff16156116fc5760405162461bcd60e51b81526020600482015260136024820152725445423a204f6e6c79206d696e74206f6e636560681b6044820152606401610c70565b6127108161170d6001546000190190565b6117179190613353565b11156117355760405162461bcd60e51b8152600401610c709061336b565b61174f338260405180602001604052806000815250612407565b50336000908152601460205260409020805460ff19166001179055565b606060008267ffffffffffffffff81111561178957611789612d79565b6040519080825280602002602001820160405280156117b2578160200160208202803683370190505b50905060005b8381101561182d57600960008686848181106117d6576117d66132a7565b90506020020135815260200190815260200160002060009054906101000a900460ff1682828151811061180b5761180b6132a7565b9115156020928302919091019091015280611825816132bd565b9150506117b8565b509392505050565b60006001600160e01b0319821663152a902d60e11b1480610b0c5750610b0c8261246d565b610f3481336124bb565b6127106001600160601b038216111561188f5760405162461bcd60e51b8152600401610c70906133f6565b6001600160a01b0382166118e55760405162461bcd60e51b815260206004820152601960248201527f455243323938313a20696e76616c6964207265636569766572000000000000006044820152606401610c70565b604080518082019091526001600160a01b039092168083526001600160601b039091166020909201829052600160a01b90910217600b55565b600081600111158015611932575060015482105b8015610b0c575050600090815260056020526040902054600160e01b161590565b6daaeb6d7670e522a718067333cd4e3b15610f3457604051633185c44d60e21b81523060048201526001600160a01b03821660248201526daaeb6d7670e522a718067333cd4e9063c617113490604401602060405180830381865afa1580156119c0573d6000803e3d6000fd5b505050506040513d601f19601f820116820180604052508101906119e49190613440565b610f3457604051633b79c77360e21b81526001600160a01b0382166004820152602401610c70565b6000611a1782610f85565b9050336001600160a01b03821614611a5057611a338133610a5d565b611a50576040516367d9dca160e11b815260040160405180910390fd5b60008281526007602052604080822080546001600160a01b0319166001600160a01b0387811691821790925591518593918516917f8c5be1e5ebec7d5bd14f71427d1e84f3dd0314c0f7b2291e5b200ac8c7c3b92591a4505050565b333214611acb5760405162461bcd60e51b8152600401610c709061331c565b84871115611b1b5760405162461bcd60e51b815260206004820152601a60248201527f5445423a205175616e7469747920657863656564206c696d69740000000000006044820152606401610c70565b806004811115611b2d57611b2d6130d6565b611b35611261565b6004811115611b4657611b466130d6565b14611b895760405162461bcd60e51b81526020600482015260136024820152720a88a847440a0d0c2e6ca40dad2e6dac2e8c6d606b1b6044820152606401610c70565b34611b948888613266565b1115611bb25760405162461bcd60e51b8152600401610c70906133b2565b3360009081526020839052604090205460ff1615611c085760405162461bcd60e51b81526020600482015260136024820152725445423a204f6e6c79206d696e74206f6e636560681b6044820152606401610c70565b61271087611c196001546000190190565b611c239190613353565b1115611c415760405162461bcd60e51b8152600401610c709061336b565b600033868684604051602001611c5a949392919061345d565b60408051601f1981840301815291905280516020909101209050730ac584a240fbae9e6403c569a7ce29fc5c4d8912611c938286612514565b6001600160a01b031614611cdb5760405162461bcd60e51b815260206004820152600f60248201526e2a22a11d1029b4b3b71032b93937b960891b6044820152606401610c70565b611cf5338960405180602001604052806000815250612407565b505033600090815260209190915260409020805460ff191660011790555050505050565b6000611d24826121cc565b9050836001600160a01b0316816001600160a01b031614611d575760405162a1148160e81b815260040160405180910390fd5b60008281526007602052604090208054611d838187335b6001600160a01b039081169116811491141790565b611dae57611d918633610a5d565b611dae57604051632ce44b5f60e11b815260040160405180910390fd5b6001600160a01b038516611dd557604051633a954ecd60e21b815260040160405180910390fd5b611de28686866001612530565b8015611ded57600082555b6001600160a01b038681166000908152600660205260408082208054600019019055918716808252919020805460010190554260a01b17600160e11b17600085815260056020526040812091909155600160e11b84169003611e7f57600184016000818152600560205260408120549003611e7d576001548114611e7d5760008181526005602052604090208490555b505b83856001600160a01b0316876001600160a01b03166000805160206135b683398151915260405160405180910390a4505050505050565b611ec08282611215565b610e18576000828152602081815260408083206001600160a01b03851684529091529020805460ff19166001179055611ef63390565b6001600160a01b0316816001600160a01b0316837f2f8788117e7eff1d82e926ec794901d17c78024a50270940304540a733656f0d60405160405180910390a45050565b611f448282611215565b15610e18576000828152602081815260408083206001600160a01b0385168085529252808320805460ff1916905551339285917ff6391f5c32d9c69d2a47ea670b442974b53935d1edc7fd64eb21e047a839171b9190a45050565b610b3483838360405180602001604052806000815250611371565b6000611fc5836121cc565b905080600080611fe386600090815260076020526040902080549091565b91509150841561202357611ff8818433611d6e565b612023576120068333610a5d565b61202357604051632ce44b5f60e11b815260040160405180910390fd5b612031836000886001612530565b801561203c57600082555b6001600160a01b038316600081815260066020526040902080546fffffffffffffffffffffffffffffffff0190554260a01b17600360e01b17600087815260056020526040812091909155600160e11b851690036120ca576001860160008181526005602052604081205490036120c85760015481146120c85760008181526005602052604090208590555b505b60405186906000906001600160a01b038616906000805160206135b6833981519152908390a4505060028054600101905550505050565b6127106001600160601b038216111561212c5760405162461bcd60e51b8152600401610c70906133f6565b6001600160a01b0382166121825760405162461bcd60e51b815260206004820152601b60248201527f455243323938313a20496e76616c696420706172616d657465727300000000006044820152606401610c70565b6040805180820182526001600160a01b0393841681526001600160601b0392831660208083019182526000968752600c90529190942093519051909116600160a01b029116179055565b60008180600111612222576001548110156122225760008181526005602052604081205490600160e01b82169003612220575b8060000361147f5750600019016000818152600560205260409020546121ff565b505b604051636f96cda160e11b815260040160405180910390fd5b600d546001600160a01b031633146111a85760405162461bcd60e51b815260206004820181905260248201527f4f776e61626c653a2063616c6c6572206973206e6f7420746865206f776e65726044820152606401610c70565b600d80546001600160a01b038381166001600160a01b0319831681179093556040519116919082907f8be0079c531659141344cd1fd0a4f28419497f9722a3daafe3b4186f6b6457e090600090a35050565b336001600160a01b038316036123105760405163b06307db60e01b815260040160405180910390fd5b3360008181526008602090815260408083206001600160a01b03871680855290835292819020805460ff191686151590811790915590519081529192917f17307eab39ab6107e8899845ad3d59bd9653f200f220920489ca2b5937696c31910160405180910390a35050565b612387848484610c92565b6001600160a01b0383163b15610c8c576123a3848484846125c8565b610c8c576040516368d2bf6b60e11b815260040160405180910390fd5b606060118054610b4890613216565b604080516080019081905280825b600183039250600a81066030018353600a9004806123dd5750819003601f19909101908152919050565b61241183836126b4565b6001600160a01b0383163b15610b34576001548281035b61243b60008683806001019450866125c8565b612458576040516368d2bf6b60e11b815260040160405180910390fd5b81811061242857816001541461139757600080fd5b60006301ffc9a760e01b6001600160e01b03198316148061249e57506380ac58cd60e01b6001600160e01b03198316145b80610b0c5750506001600160e01b031916635b5e139f60e01b1490565b6124c58282611215565b610e18576124d28161279b565b6124dd8360206127ad565b6040516020016124ee9291906134af565b60408051601f198184030181529082905262461bcd60e51b8252610c7091600401612d23565b60008060006125238585612949565b9150915061182d8161298b565b815b61253c8284613353565b8110156113975760008181526009602052604090205460ff16156125b65760405162461bcd60e51b815260206004820152602b60248201527f455243373231414c6f636b61626c653a205468697320746f6b656e206861732060448201526a1899595b881b1bd8dad95960aa1b6064820152608401610c70565b806125c0816132bd565b915050612532565b604051630a85bd0160e11b81526000906001600160a01b0385169063150b7a02906125fd903390899088908890600401613524565b6020604051808303816000875af1925050508015612638575060408051601f3d908101601f1916820190925261263591810190613561565b60015b612696573d808015612666576040519150601f19603f3d011682016040523d82523d6000602084013e61266b565b606091505b50805160000361268e576040516368d2bf6b60e11b815260040160405180910390fd5b805181602001fd5b6001600160e01b031916630a85bd0160e11b1490505b949350505050565b60015460008290036126d95760405163b562e8dd60e01b815260040160405180910390fd5b6126e66000848385612530565b6001600160a01b03831660008181526006602090815260408083208054680100000000000000018802019055848352600590915281206001851460e11b4260a01b178317905582840190839083906000805160206135b68339815191528180a4600183015b81811461277157808360006000805160206135b6833981519152600080a460010161274b565b508160000361279257604051622e076360e81b815260040160405180910390fd5b60015550505050565b6060610b0c6001600160a01b03831660145b606060006127bc836002613266565b6127c7906002613353565b67ffffffffffffffff8111156127df576127df612d79565b6040519080825280601f01601f191660200182016040528015612809576020820181803683370190505b509050600360fc1b81600081518110612824576128246132a7565b60200101906001600160f81b031916908160001a905350600f60fb1b81600181518110612853576128536132a7565b60200101906001600160f81b031916908160001a9053506000612877846002613266565b612882906001613353565b90505b60018111156128fa576f181899199a1a9b1b9c1cb0b131b232b360811b85600f16601081106128b6576128b66132a7565b1a60f81b8282815181106128cc576128cc6132a7565b60200101906001600160f81b031916908160001a90535060049490941c936128f38161357e565b9050612885565b50831561147f5760405162461bcd60e51b815260206004820181905260248201527f537472696e67733a20686578206c656e67746820696e73756666696369656e746044820152606401610c70565b600080825160410361297f5760208301516040840151606085015160001a61297387828585612ad5565b94509450505050610d72565b50600090506002610d72565b600081600481111561299f5761299f6130d6565b036129a75750565b60018160048111156129bb576129bb6130d6565b03612a085760405162461bcd60e51b815260206004820152601860248201527f45434453413a20696e76616c6964207369676e617475726500000000000000006044820152606401610c70565b6002816004811115612a1c57612a1c6130d6565b03612a695760405162461bcd60e51b815260206004820152601f60248201527f45434453413a20696e76616c6964207369676e6174757265206c656e677468006044820152606401610c70565b6003816004811115612a7d57612a7d6130d6565b03610f345760405162461bcd60e51b815260206004820152602260248201527f45434453413a20696e76616c6964207369676e6174757265202773272076616c604482015261756560f01b6064820152608401610c70565b6000807f7fffffffffffffffffffffffffffffff5d576e7357a4501ddfe92f46681b20a0831115612b0c5750600090506003612b90565b6040805160008082526020820180845289905260ff881692820192909252606081018690526080810185905260019060a0016020604051602081039080840390855afa158015612b60573d6000803e3d6000fd5b5050604051601f1901519150506001600160a01b038116612b8957600060019250925050612b90565b9150600090505b94509492505050565b828054612ba590613216565b90600052602060002090601f016020900481019282612bc75760008555612c0d565b82601f10612be057805160ff1916838001178555612c0d565b82800160010185558215612c0d579182015b82811115612c0d578251825591602001919060010190612bf2565b50612c19929150612c1d565b5090565b5b80821115612c195760008155600101612c1e565b6001600160e01b031981168114610f3457600080fd5b600060208284031215612c5a57600080fd5b813561147f81612c32565b80356001600160a01b0381168114612c7c57600080fd5b919050565b80356001600160601b0381168114612c7c57600080fd5b60008060408385031215612cab57600080fd5b612cb483612c65565b9150612cc260208401612c81565b90509250929050565b60005b83811015612ce6578181015183820152602001612cce565b83811115610c8c5750506000910152565b60008151808452612d0f816020860160208601612ccb565b601f01601f19169290920160200192915050565b60208152600061147f6020830184612cf7565b600060208284031215612d4857600080fd5b5035919050565b60008060408385031215612d6257600080fd5b612d6b83612c65565b946020939093013593505050565b634e487b7160e01b600052604160045260246000fd5b600067ffffffffffffffff80841115612daa57612daa612d79565b604051601f8501601f19908116603f01168101908282118183101715612dd257612dd2612d79565b81604052809350858152868686011115612deb57600080fd5b858560208301376000602087830101525050509392505050565b600082601f830112612e1657600080fd5b61147f83833560208501612d8f565b60008060008060808587031215612e3b57600080fd5b843593506020850135925060408501359150606085013567ffffffffffffffff811115612e6757600080fd5b612e7387828801612e05565b91505092959194509250565b600080600060608486031215612e9457600080fd5b612e9d84612c65565b9250612eab60208501612c65565b9150604084013590509250925092565b60008060408385031215612ece57600080fd5b50508035926020909101359150565b60008060408385031215612ef057600080fd5b82359150612cc260208401612c65565b600080600080600080600080610100898b031215612f1d57600080fd5b505086359860208801359850604088013597606081013597506080810135965060a0810135955060c0810135945060e0013592509050565b600080600060608486031215612f6a57600080fd5b83359250612f7a60208501612c65565b9150612f8860408501612c81565b90509250925092565b600060208284031215612fa357600080fd5b813567ffffffffffffffff811115612fba57600080fd5b8201601f81018413612fcb57600080fd5b6126ac84823560208401612d8f565b60008083601f840112612fec57600080fd5b50813567ffffffffffffffff81111561300457600080fd5b6020830191508360208260051b8501011115610d7257600080fd5b8015158114610f3457600080fd5b60008060006040848603121561304257600080fd5b833567ffffffffffffffff81111561305957600080fd5b61306586828701612fda565b90945092505060208401356130798161301f565b809150509250925092565b60006020828403121561309657600080fd5b61147f82612c65565b600080604083850312156130b257600080fd5b6130bb83612c65565b915060208301356130cb8161301f565b809150509250929050565b634e487b7160e01b600052602160045260246000fd5b602081016005831061310e57634e487b7160e01b600052602160045260246000fd5b91905290565b6000806000806080858703121561312a57600080fd5b61313385612c65565b935061314160208601612c65565b925060408501359150606085013567ffffffffffffffff811115612e6757600080fd5b6000806040838503121561317757600080fd5b61318083612c65565b9150612cc260208401612c65565b600080602083850312156131a157600080fd5b823567ffffffffffffffff8111156131b857600080fd5b6131c485828601612fda565b90969095509350505050565b6020808252825182820181905260009190848201906040850190845b8181101561320a5783511515835292840192918401916001016131ec565b50909695505050505050565b600181811c9082168061322a57607f821691505b60208210810361324a57634e487b7160e01b600052602260045260246000fd5b50919050565b634e487b7160e01b600052601160045260246000fd5b600081600019048311821515161561328057613280613250565b500290565b6000826132a257634e487b7160e01b600052601260045260246000fd5b500490565b634e487b7160e01b600052603260045260246000fd5b6000600182016132cf576132cf613250565b5060010190565b6000828210156132e8576132e8613250565b500390565b600083516132ff818460208801612ccb565b835190830190613313818360208801612ccb565b01949350505050565b6020808252601c908201527f5445423a2050726f686962697420636f6e74726163742063616c6c7300000000604082015260600190565b6000821982111561336657613366613250565b500190565b60208082526027908201527f5445423a204d696e7420776f756c6420657863656564206d617820746f74616c60408201526620737570706c7960c81b606082015260800190565b60208082526024908201527f5445423a2045746865722076616c75652073656e74206973206e6f7420636f726040820152631c9958dd60e21b606082015260800190565b6020808252602a908201527f455243323938313a20726f79616c7479206665652077696c6c206578636565646040820152692073616c65507269636560b01b606082015260800190565b60006020828403121561345257600080fd5b815161147f8161301f565b6001600160601b03198560601b16815283601482015282603482015260006005831061349957634e487b7160e01b600052602160045260246000fd5b5060f89190911b60548201526055019392505050565b7f416363657373436f6e74726f6c3a206163636f756e74200000000000000000008152600083516134e7816017850160208801612ccb565b7001034b99036b4b9b9b4b733903937b6329607d1b6017918401918201528351613518816028840160208801612ccb565b01602801949350505050565b6001600160a01b038581168252841660208201526040810183905260806060820181905260009061355790830184612cf7565b9695505050505050565b60006020828403121561357357600080fd5b815161147f81612c32565b60008161358d5761358d613250565b50600019019056fe27878d6fd2352e8c530d873016f67bb748d79859c781b7c2453cc2caffa896ffddf252ad1be2c89b69c2b068fc378daa952ba7f163c4a11628f55a4df523b3efa26469706673582212205081d1bb82f63ecb52f0c1fe759363f7e0332a438cd800edd9b236b7043212ab64736f6c634300080e003327878d6fd2352e8c530d873016f67bb748d79859c781b7c2453cc2caffa896ff",
  "linkReferences": {},
  "deployedLinkReferences": {}
}